{
  "contractName": "Voting",
  "abi": [
    {
      "inputs": [],
      "stateMutability": "nonpayable",
      "type": "constructor"
    },
    {
      "inputs": [],
      "name": "getTotalVotesAlpha",
      "outputs": [
        {
          "internalType": "int256",
          "name": "",
          "type": "int256"
        }
      ],
      "stateMutability": "view",
      "type": "function",
      "constant": true
    },
    {
      "inputs": [],
      "name": "getTotalVotesBeta",
      "outputs": [
        {
          "internalType": "int256",
          "name": "",
          "type": "int256"
        }
      ],
      "stateMutability": "view",
      "type": "function",
      "constant": true
    },
    {
      "inputs": [],
      "name": "voteAlpha",
      "outputs": [],
      "stateMutability": "nonpayable",
      "type": "function"
    },
    {
      "inputs": [],
      "name": "voteBeta",
      "outputs": [],
      "stateMutability": "nonpayable",
      "type": "function"
    }
  ],
  "bytecode": "0x608060405234801561001057600080fd5b506000808190555060006001819055506101db8061002f6000396000f3fe608060405234801561001057600080fd5b5060043610610069576000357c0100000000000000000000000000000000000000000000000000000000900480638725f6451461006e578063aecc5a281461008c578063ee010d8814610096578063fe338a97146100b4575b600080fd5b6100766100be565b6040516100839190610117565b60405180910390f35b6100946100c7565b005b61009e6100dd565b6040516100ab9190610117565b60405180910390f35b6100bc6100e7565b005b60008054905090565b600180546100d59190610161565b600181905550565b6000600154905090565b60016000546100f69190610161565b600081905550565b6000819050919050565b610111816100fe565b82525050565b600060208201905061012c6000830184610108565b92915050565b7f4e487b7100000000000000000000000000000000000000000000000000000000600052601160045260246000fd5b600061016c826100fe565b9150610177836100fe565b92508282019050828112156000831216838212600084121516171561019f5761019e610132565b5b9291505056fea26469706673582212207bfa8b22438d56bd347e66184cd8529dd5ea3d5efa232e2cbb435901f3a9c07164736f6c63430008130033",
  "immutableReferences": {},
  "source": "pragma solidity ^0.8.14;\r\n\r\ncontract Voting{\r\n\r\nint alpha;\r\nint beta;\r\n\r\nconstructor()  {\r\n   alpha  = 0;\r\n    beta = 0;\r\n}\r\n\r\nfunction getTotalVotesAlpha() view public returns(int) {\r\n    return alpha;\r\n}\r\n\r\nfunction getTotalVotesBeta() view public returns(int){\r\n    return beta;\r\n}\r\n\r\nfunction voteAlpha () public{\r\n    alpha = alpha+1;\r\n}\r\n\r\nfunction voteBeta () public{\r\n    beta = beta+1;\r\n}\r\n}",
  "sourcePath": "C:\\Users\\Chidera Ugonwa\\Documents\\aaaaa\\pollster\\contracts\\Voting.sol",
  "compiler": {
    "name": "solc",
    "version": "0.8.19+commit.7dd6d404.Emscripten.clang"
  },
  "schemaVersion": "3.4.12",
  "updatedAt": "2023-03-01T12:14:31.732Z",
  "networkType": "ethereum",
  "devdoc": {
    "kind": "dev",
    "methods": {},
    "version": 1
  },
  "userdoc": {
    "kind": "user",
    "methods": {},
    "version": 1
  }
}